{
  "contractName": "ERC721",
  "abi": [
    {
      "inputs": [
        {
          "internalType": "string",
          "name": "_tokenName",
          "type": "string"
        },
        {
          "internalType": "string",
          "name": "_symbol",
          "type": "string"
        },
        {
          "internalType": "uint256",
          "name": "_totalSupply",
          "type": "uint256"
        }
      ],
      "stateMutability": "nonpayable",
      "type": "constructor"
    },
    {
      "inputs": [],
      "name": "owner",
      "outputs": [
        {
          "internalType": "address",
          "name": "",
          "type": "address"
        }
      ],
      "stateMutability": "view",
      "type": "function",
      "constant": true
    },
    {
      "inputs": [],
      "name": "symbol",
      "outputs": [
        {
          "internalType": "string",
          "name": "",
          "type": "string"
        }
      ],
      "stateMutability": "view",
      "type": "function",
      "constant": true
    },
    {
      "inputs": [],
      "name": "tokenName",
      "outputs": [
        {
          "internalType": "string",
          "name": "",
          "type": "string"
        }
      ],
      "stateMutability": "view",
      "type": "function",
      "constant": true
    },
    {
      "inputs": [
        {
          "internalType": "uint256",
          "name": "",
          "type": "uint256"
        }
      ],
      "name": "tokenOwners",
      "outputs": [
        {
          "internalType": "address",
          "name": "",
          "type": "address"
        }
      ],
      "stateMutability": "view",
      "type": "function",
      "constant": true
    },
    {
      "inputs": [
        {
          "internalType": "address",
          "name": "",
          "type": "address"
        },
        {
          "internalType": "uint256",
          "name": "",
          "type": "uint256"
        }
      ],
      "name": "tokensOwnedBy",
      "outputs": [
        {
          "internalType": "uint256",
          "name": "",
          "type": "uint256"
        }
      ],
      "stateMutability": "view",
      "type": "function",
      "constant": true
    },
    {
      "inputs": [],
      "name": "totalSupply",
      "outputs": [
        {
          "internalType": "uint256",
          "name": "",
          "type": "uint256"
        }
      ],
      "stateMutability": "view",
      "type": "function",
      "constant": true
    },
    {
      "inputs": [
        {
          "internalType": "address",
          "name": "_to",
          "type": "address"
        },
        {
          "internalType": "uint256",
          "name": "_tokenId",
          "type": "uint256"
        }
      ],
      "name": "mint",
      "outputs": [],
      "stateMutability": "nonpayable",
      "type": "function"
    },
    {
      "inputs": [
        {
          "internalType": "address",
          "name": "_from",
          "type": "address"
        },
        {
          "internalType": "address",
          "name": "_to",
          "type": "address"
        },
        {
          "internalType": "uint256",
          "name": "_tokenId",
          "type": "uint256"
        }
      ],
      "name": "transferFrom",
      "outputs": [],
      "stateMutability": "nonpayable",
      "type": "function"
    },
    {
      "inputs": [
        {
          "internalType": "address",
          "name": "_person",
          "type": "address"
        }
      ],
      "name": "listOfTokenIds",
      "outputs": [
        {
          "internalType": "uint256[]",
          "name": "",
          "type": "uint256[]"
        }
      ],
      "stateMutability": "view",
      "type": "function",
      "constant": true
    },
    {
      "inputs": [
        {
          "internalType": "address[]",
          "name": "_recipients",
          "type": "address[]"
        },
        {
          "internalType": "uint256[]",
          "name": "_tokenIds",
          "type": "uint256[]"
        }
      ],
      "name": "bulkTransfer",
      "outputs": [],
      "stateMutability": "nonpayable",
      "type": "function"
    }
  ],
  "bytecode": "0x608060405234801562000010575f80fd5b50604051620018ec380380620018ec833981810160405281019062000036919062000266565b825f90816200004691906200052b565b5081600190816200005891906200052b565b50806002819055503360055f6101000a81548173ffffffffffffffffffffffffffffffffffffffff021916908373ffffffffffffffffffffffffffffffffffffffff1602179055505050506200060f565b5f604051905090565b5f80fd5b5f80fd5b5f80fd5b5f80fd5b5f601f19601f8301169050919050565b7f4e487b71000000000000000000000000000000000000000000000000000000005f52604160045260245ffd5b6200010a82620000c2565b810181811067ffffffffffffffff821117156200012c576200012b620000d2565b5b80604052505050565b5f62000140620000a9565b90506200014e8282620000ff565b919050565b5f67ffffffffffffffff82111562000170576200016f620000d2565b5b6200017b82620000c2565b9050602081019050919050565b5f5b83811015620001a75780820151818401526020810190506200018a565b5f8484015250505050565b5f620001c8620001c28462000153565b62000135565b905082815260208101848484011115620001e757620001e6620000be565b5b620001f484828562000188565b509392505050565b5f82601f830112620002135762000212620000ba565b5b815162000225848260208601620001b2565b91505092915050565b5f819050919050565b62000242816200022e565b81146200024d575f80fd5b50565b5f81519050620002608162000237565b92915050565b5f805f6060848603121562000280576200027f620000b2565b5b5f84015167ffffffffffffffff811115620002a0576200029f620000b6565b5b620002ae86828701620001fc565b935050602084015167ffffffffffffffff811115620002d257620002d1620000b6565b5b620002e086828701620001fc565b9250506040620002f38682870162000250565b9150509250925092565b5f81519050919050565b7f4e487b71000000000000000000000000000000000000000000000000000000005f52602260045260245ffd5b5f60028204905060018216806200034c57607f821691505b60208210810362000362576200036162000307565b5b50919050565b5f819050815f5260205f209050919050565b5f6020601f8301049050919050565b5f82821b905092915050565b5f60088302620003c67fffffffffffffffffffffffffffffffffffffffffffffffffffffffffffffffff8262000389565b620003d2868362000389565b95508019841693508086168417925050509392505050565b5f819050919050565b5f620004136200040d62000407846200022e565b620003ea565b6200022e565b9050919050565b5f819050919050565b6200042e83620003f3565b620004466200043d826200041a565b84845462000395565b825550505050565b5f90565b6200045c6200044e565b6200046981848462000423565b505050565b5b818110156200049057620004845f8262000452565b6001810190506200046f565b5050565b601f821115620004df57620004a98162000368565b620004b4846200037a565b81016020851015620004c4578190505b620004dc620004d3856200037a565b8301826200046e565b50505b505050565b5f82821c905092915050565b5f620005015f1984600802620004e4565b1980831691505092915050565b5f6200051b8383620004f0565b9150826002028217905092915050565b6200053682620002fd565b67ffffffffffffffff811115620005525762000551620000d2565b5b6200055e825462000334565b6200056b82828562000494565b5f60209050601f831160018114620005a1575f84156200058c578287015190505b6200059885826200050e565b86555062000607565b601f198416620005b18662000368565b5f5b82811015620005da57848901518255600182019150602085019450602081019050620005b3565b86831015620005fa5784890151620005f6601f891682620004f0565b8355505b6001600288020188555050505b505050505050565b6112cf806200061d5f395ff3fe608060405234801561000f575f80fd5b506004361061009c575f3560e01c80636c02a931116100645780636c02a931146101425780637b66e278146101605780638da5cb5b1461019057806395d89b41146101ae578063f8a14f46146101cc5761009c565b8063153a1f3e146100a057806318160ddd146100bc57806323b872dd146100da57806339477de0146100f657806340c10f1914610126575b5f80fd5b6100ba60048036038101906100b59190610bd0565b6101fc565b005b6100c461029c565b6040516100d19190610c55565b60405180910390f35b6100f460048036038101906100ef9190610c6e565b6102a2565b005b610110600480360381019061010b9190610cbe565b6104c7565b60405161011d9190610c55565b60405180910390f35b610140600480360381019061013b9190610cbe565b6104f2565b005b61014a610723565b6040516101579190610d76565b60405180910390f35b61017a60048036038101906101759190610d96565b6107ae565b6040516101879190610e78565b60405180910390f35b610198610841565b6040516101a59190610ea7565b60405180910390f35b6101b6610866565b6040516101c39190610d76565b60405180910390f35b6101e660048036038101906101e19190610ec0565b6108f2565b6040516101f39190610ea7565b60405180910390f35b8051825114610240576040517f08c379a000000000000000000000000000000000000000000000000000000000815260040161023790610f35565b60405180910390fd5b5f5b82518110156102975761028a3384838151811061026257610261610f53565b5b602002602001015184848151811061027d5761027c610f53565b5b60200260200101516102a2565b8080600101915050610242565b505050565b60025481565b8273ffffffffffffffffffffffffffffffffffffffff163373ffffffffffffffffffffffffffffffffffffffff161480610328575060055f9054906101000a900473ffffffffffffffffffffffffffffffffffffffff1673ffffffffffffffffffffffffffffffffffffffff163373ffffffffffffffffffffffffffffffffffffffff16145b610367576040517f08c379a000000000000000000000000000000000000000000000000000000000815260040161035e90610ff0565b60405180910390fd5b5f73ffffffffffffffffffffffffffffffffffffffff168273ffffffffffffffffffffffffffffffffffffffff16036103d5576040517f08c379a00000000000000000000000000000000000000000000000000000000081526004016103cc90611058565b60405180910390fd5b8273ffffffffffffffffffffffffffffffffffffffff1660035f8381526020019081526020015f205f9054906101000a900473ffffffffffffffffffffffffffffffffffffffff1673ffffffffffffffffffffffffffffffffffffffff1614610473576040517f08c379a000000000000000000000000000000000000000000000000000000000815260040161046a906110c0565b60405180910390fd5b8160035f8381526020019081526020015f205f6101000a81548173ffffffffffffffffffffffffffffffffffffffff021916908373ffffffffffffffffffffffffffffffffffffffff160217905550505050565b6004602052815f5260405f2081815481106104e0575f80fd5b905f5260205f20015f91509150505481565b60055f9054906101000a900473ffffffffffffffffffffffffffffffffffffffff1673ffffffffffffffffffffffffffffffffffffffff163373ffffffffffffffffffffffffffffffffffffffff1614610581576040517f08c379a00000000000000000000000000000000000000000000000000000000081526004016105789061114e565b60405180910390fd5b5f8111801561059257506002548111155b6105d1576040517f08c379a00000000000000000000000000000000000000000000000000000000081526004016105c8906111b6565b60405180910390fd5b5f73ffffffffffffffffffffffffffffffffffffffff1660035f8381526020019081526020015f205f9054906101000a900473ffffffffffffffffffffffffffffffffffffffff1673ffffffffffffffffffffffffffffffffffffffff161461066f576040517f08c379a00000000000000000000000000000000000000000000000000000000081526004016106669061121e565b60405180910390fd5b8160035f8381526020019081526020015f205f6101000a81548173ffffffffffffffffffffffffffffffffffffffff021916908373ffffffffffffffffffffffffffffffffffffffff16021790555060045f8373ffffffffffffffffffffffffffffffffffffffff1673ffffffffffffffffffffffffffffffffffffffff1681526020019081526020015f2081908060018154018082558091505060019003905f5260205f20015f90919091909150555050565b5f805461072f90611269565b80601f016020809104026020016040519081016040528092919081815260200182805461075b90611269565b80156107a65780601f1061077d576101008083540402835291602001916107a6565b820191905f5260205f20905b81548152906001019060200180831161078957829003601f168201915b505050505081565b606060045f8373ffffffffffffffffffffffffffffffffffffffff1673ffffffffffffffffffffffffffffffffffffffff1681526020019081526020015f2080548060200260200160405190810160405280929190818152602001828054801561083557602002820191905f5260205f20905b815481526020019060010190808311610821575b50505050509050919050565b60055f9054906101000a900473ffffffffffffffffffffffffffffffffffffffff1681565b6001805461087390611269565b80601f016020809104026020016040519081016040528092919081815260200182805461089f90611269565b80156108ea5780601f106108c1576101008083540402835291602001916108ea565b820191905f5260205f20905b8154815290600101906020018083116108cd57829003601f168201915b505050505081565b6003602052805f5260405f205f915054906101000a900473ffffffffffffffffffffffffffffffffffffffff1681565b5f604051905090565b5f80fd5b5f80fd5b5f80fd5b5f601f19601f8301169050919050565b7f4e487b71000000000000000000000000000000000000000000000000000000005f52604160045260245ffd5b61097d82610937565b810181811067ffffffffffffffff8211171561099c5761099b610947565b5b80604052505050565b5f6109ae610922565b90506109ba8282610974565b919050565b5f67ffffffffffffffff8211156109d9576109d8610947565b5b602082029050602081019050919050565b5f80fd5b5f73ffffffffffffffffffffffffffffffffffffffff82169050919050565b5f610a17826109ee565b9050919050565b610a2781610a0d565b8114610a31575f80fd5b50565b5f81359050610a4281610a1e565b92915050565b5f610a5a610a55846109bf565b6109a5565b90508083825260208201905060208402830185811115610a7d57610a7c6109ea565b5b835b81811015610aa65780610a928882610a34565b845260208401935050602081019050610a7f565b5050509392505050565b5f82601f830112610ac457610ac3610933565b5b8135610ad4848260208601610a48565b91505092915050565b5f67ffffffffffffffff821115610af757610af6610947565b5b602082029050602081019050919050565b5f819050919050565b610b1a81610b08565b8114610b24575f80fd5b50565b5f81359050610b3581610b11565b92915050565b5f610b4d610b4884610add565b6109a5565b90508083825260208201905060208402830185811115610b7057610b6f6109ea565b5b835b81811015610b995780610b858882610b27565b845260208401935050602081019050610b72565b5050509392505050565b5f82601f830112610bb757610bb6610933565b5b8135610bc7848260208601610b3b565b91505092915050565b5f8060408385031215610be657610be561092b565b5b5f83013567ffffffffffffffff811115610c0357610c0261092f565b5b610c0f85828601610ab0565b925050602083013567ffffffffffffffff811115610c3057610c2f61092f565b5b610c3c85828601610ba3565b9150509250929050565b610c4f81610b08565b82525050565b5f602082019050610c685f830184610c46565b92915050565b5f805f60608486031215610c8557610c8461092b565b5b5f610c9286828701610a34565b9350506020610ca386828701610a34565b9250506040610cb486828701610b27565b9150509250925092565b5f8060408385031215610cd457610cd361092b565b5b5f610ce185828601610a34565b9250506020610cf285828601610b27565b9150509250929050565b5f81519050919050565b5f82825260208201905092915050565b5f5b83811015610d33578082015181840152602081019050610d18565b5f8484015250505050565b5f610d4882610cfc565b610d528185610d06565b9350610d62818560208601610d16565b610d6b81610937565b840191505092915050565b5f6020820190508181035f830152610d8e8184610d3e565b905092915050565b5f60208284031215610dab57610daa61092b565b5b5f610db884828501610a34565b91505092915050565b5f81519050919050565b5f82825260208201905092915050565b5f819050602082019050919050565b610df381610b08565b82525050565b5f610e048383610dea565b60208301905092915050565b5f602082019050919050565b5f610e2682610dc1565b610e308185610dcb565b9350610e3b83610ddb565b805f5b83811015610e6b578151610e528882610df9565b9750610e5d83610e10565b925050600181019050610e3e565b5085935050505092915050565b5f6020820190508181035f830152610e908184610e1c565b905092915050565b610ea181610a0d565b82525050565b5f602082019050610eba5f830184610e98565b92915050565b5f60208284031215610ed557610ed461092b565b5b5f610ee284828501610b27565b91505092915050565b7f417272617973206c656e677468206d69736d61746368000000000000000000005f82015250565b5f610f1f601683610d06565b9150610f2a82610eeb565b602082019050919050565b5f6020820190508181035f830152610f4c81610f13565b9050919050565b7f4e487b71000000000000000000000000000000000000000000000000000000005f52603260045260245ffd5b7f596f7520617265206e6f7420617574686f72697a656420746f207472616e73665f8201527f6572207468697320746f6b656e00000000000000000000000000000000000000602082015250565b5f610fda602d83610d06565b9150610fe582610f80565b604082019050919050565b5f6020820190508181035f83015261100781610fce565b9050919050565b7f496e76616c696420726563697069656e742061646472657373000000000000005f82015250565b5f611042601983610d06565b915061104d8261100e565b602082019050919050565b5f6020820190508181035f83015261106f81611036565b9050919050565b7f546f6b656e206973206e6f74206f776e6564206279207468652073656e6465725f82015250565b5f6110aa602083610d06565b91506110b582611076565b602082019050919050565b5f6020820190508181035f8301526110d78161109e565b9050919050565b7f4f6e6c7920746865206f776e65722063616e2063616c6c20746869732066756e5f8201527f6374696f6e000000000000000000000000000000000000000000000000000000602082015250565b5f611138602583610d06565b9150611143826110de565b604082019050919050565b5f6020820190508181035f8301526111658161112c565b9050919050565b7f496e76616c696420746f6b656e204944000000000000000000000000000000005f82015250565b5f6111a0601083610d06565b91506111ab8261116c565b602082019050919050565b5f6020820190508181035f8301526111cd81611194565b9050919050565b7f546f6b656e20616c7265616479206d696e7465640000000000000000000000005f82015250565b5f611208601483610d06565b9150611213826111d4565b602082019050919050565b5f6020820190508181035f830152611235816111fc565b9050919050565b7f4e487b71000000000000000000000000000000000000000000000000000000005f52602260045260245ffd5b5f600282049050600182168061128057607f821691505b6020821081036112935761129261123c565b5b5091905056fea26469706673582212208c9ecb91a9511364ad45ca3721949cc7339ce6dc399ed6daf96ca6852e7094fd64736f6c63430008180033",
  "immutableReferences": {},
  "source": "// SPDX-License-Identifier: GPL-3.0\r\npragma solidity ^0.8.0;\r\n\r\n/**\r\n * ERC721 Smart Contract\r\n */\r\ncontract ERC721 {\r\n    string public tokenName;\r\n    string public symbol;\r\n    uint256 public totalSupply;\r\n\r\n    mapping(uint256 => address) public tokenOwners;\r\n    mapping(address => uint256[]) public tokensOwnedBy;\r\n\r\n    address public owner;\r\n\r\n    constructor(string memory _tokenName, string memory _symbol, uint256 _totalSupply) {\r\n        tokenName = _tokenName;\r\n        symbol = _symbol;\r\n        totalSupply = _totalSupply;\r\n        owner = msg.sender; \r\n    }\r\n\r\n    modifier onlyOwner() {\r\n        require(msg.sender == owner, \"Only the owner can call this function\");\r\n        _;\r\n    }\r\n\r\n    function mint(address _to, uint256 _tokenId) public onlyOwner {\r\n        require(_tokenId > 0 && _tokenId <= totalSupply, \"Invalid token ID\");\r\n        require(tokenOwners[_tokenId] == address(0), \"Token already minted\");\r\n\r\n        tokenOwners[_tokenId] = _to;\r\n        tokensOwnedBy[_to].push(_tokenId);\r\n    }\r\n\r\n    function transferFrom(address _from, address _to, uint256 _tokenId) public {\r\n        require(msg.sender == _from || msg.sender == owner, \"You are not authorized to transfer this token\");\r\n        require(_to != address(0), \"Invalid recipient address\");\r\n        require(tokenOwners[_tokenId] == _from, \"Token is not owned by the sender\");\r\n\r\n        tokenOwners[_tokenId] = _to;\r\n    }\r\n\r\n    function listOfTokenIds(address _person) public view returns (uint256[] memory) {\r\n        return tokensOwnedBy[_person];\r\n    }\r\n\r\n    // Function to perform bulk transfer of NFTs\r\n    function bulkTransfer(address[] memory _recipients, uint256[] memory _tokenIds) public {\r\n        require(_recipients.length == _tokenIds.length, \"Arrays length mismatch\");\r\n\r\n        for (uint256 i = 0; i < _recipients.length; i++) {\r\n            transferFrom(msg.sender, _recipients[i], _tokenIds[i]);\r\n        }\r\n    }\r\n}\r\n",
  "sourcePath": "C:\\study\\spearmint\\2ndtask\\my_nft_project\\contracts\\Erc721.sol",
  "compiler": {
    "name": "solc",
    "version": "0.8.24+commit.e11b9ed9.Emscripten.clang"
  },
  "schemaVersion": "3.4.16",
  "updatedAt": "2024-02-15T17:16:56.277Z",
  "networkType": "ethereum",
  "devdoc": {
    "kind": "dev",
    "methods": {},
    "version": 1
  },
  "userdoc": {
    "kind": "user",
    "methods": {},
    "notice": "ERC721 Smart Contract",
    "version": 1
  }
}